{
  "_format": "hh-sol-artifact-1",
  "contractName": "VaultVote",
  "sourceName": "contracts/VaultVote.sol",
  "abi": [
    {
      "inputs": [],
      "stateMutability": "nonpayable",
      "type": "constructor"
    },
    {
      "inputs": [],
      "name": "InvalidKMSSignatures",
      "type": "error"
    },
    {
      "inputs": [],
      "name": "ZamaProtocolUnsupported",
      "type": "error"
    },
    {
      "anonymous": false,
      "inputs": [
        {
          "indexed": true,
          "internalType": "uint256",
          "name": "id",
          "type": "uint256"
        }
      ],
      "name": "ElectionClosed",
      "type": "event"
    },
    {
      "anonymous": false,
      "inputs": [
        {
          "indexed": true,
          "internalType": "uint256",
          "name": "id",
          "type": "uint256"
        },
        {
          "indexed": false,
          "internalType": "string",
          "name": "title",
          "type": "string"
        },
        {
          "indexed": false,
          "internalType": "uint256",
          "name": "choices",
          "type": "uint256"
        }
      ],
      "name": "ElectionCreated",
      "type": "event"
    },
    {
      "anonymous": false,
      "inputs": [
        {
          "indexed": true,
          "internalType": "uint256",
          "name": "id",
          "type": "uint256"
        }
      ],
      "name": "ElectionOpened",
      "type": "event"
    },
    {
      "anonymous": false,
      "inputs": [
        {
          "indexed": false,
          "internalType": "bytes32[]",
          "name": "handlesList",
          "type": "bytes32[]"
        },
        {
          "indexed": false,
          "internalType": "bytes",
          "name": "abiEncodedCleartexts",
          "type": "bytes"
        }
      ],
      "name": "PublicDecryptionVerified",
      "type": "event"
    },
    {
      "anonymous": false,
      "inputs": [
        {
          "indexed": true,
          "internalType": "uint256",
          "name": "id",
          "type": "uint256"
        },
        {
          "indexed": false,
          "internalType": "bytes32",
          "name": "tallyHandle",
          "type": "bytes32"
        }
      ],
      "name": "TallyRevealRequested",
      "type": "event"
    },
    {
      "anonymous": false,
      "inputs": [
        {
          "indexed": true,
          "internalType": "uint256",
          "name": "id",
          "type": "uint256"
        },
        {
          "indexed": false,
          "internalType": "string",
          "name": "plaintextResult",
          "type": "string"
        }
      ],
      "name": "TallyRevealed",
      "type": "event"
    },
    {
      "anonymous": false,
      "inputs": [
        {
          "indexed": true,
          "internalType": "uint256",
          "name": "id",
          "type": "uint256"
        }
      ],
      "name": "TallyUpdated",
      "type": "event"
    },
    {
      "anonymous": false,
      "inputs": [
        {
          "indexed": true,
          "internalType": "uint256",
          "name": "id",
          "type": "uint256"
        },
        {
          "indexed": false,
          "internalType": "address",
          "name": "voter",
          "type": "address"
        }
      ],
      "name": "VoteCast",
      "type": "event"
    },
    {
      "inputs": [
        {
          "internalType": "uint256",
          "name": "id",
          "type": "uint256"
        },
        {
          "internalType": "externalEuint32",
          "name": "voteInput",
          "type": "bytes32"
        },
        {
          "internalType": "bytes",
          "name": "voteProof",
          "type": "bytes"
        }
      ],
      "name": "castVote",
      "outputs": [],
      "stateMutability": "nonpayable",
      "type": "function"
    },
    {
      "inputs": [
        {
          "internalType": "uint256",
          "name": "id",
          "type": "uint256"
        }
      ],
      "name": "closeElection",
      "outputs": [],
      "stateMutability": "nonpayable",
      "type": "function"
    },
    {
      "inputs": [],
      "name": "confidentialProtocolId",
      "outputs": [
        {
          "internalType": "uint256",
          "name": "",
          "type": "uint256"
        }
      ],
      "stateMutability": "view",
      "type": "function"
    },
    {
      "inputs": [
        {
          "internalType": "string",
          "name": "title",
          "type": "string"
        },
        {
          "internalType": "uint256",
          "name": "choices",
          "type": "uint256"
        },
        {
          "internalType": "externalEuint32",
          "name": "zeroInput",
          "type": "bytes32"
        },
        {
          "internalType": "bytes",
          "name": "zeroProof",
          "type": "bytes"
        }
      ],
      "name": "createElection",
      "outputs": [
        {
          "internalType": "uint256",
          "name": "",
          "type": "uint256"
        }
      ],
      "stateMutability": "nonpayable",
      "type": "function"
    },
    {
      "inputs": [],
      "name": "electionCount",
      "outputs": [
        {
          "internalType": "uint256",
          "name": "",
          "type": "uint256"
        }
      ],
      "stateMutability": "view",
      "type": "function"
    },
    {
      "inputs": [
        {
          "internalType": "uint256",
          "name": "",
          "type": "uint256"
        }
      ],
      "name": "elections",
      "outputs": [
        {
          "internalType": "string",
          "name": "title",
          "type": "string"
        },
        {
          "internalType": "uint256",
          "name": "choices",
          "type": "uint256"
        },
        {
          "internalType": "enum VaultVote.ElectionState",
          "name": "state",
          "type": "uint8"
        },
        {
          "internalType": "euint32",
          "name": "encryptedTally",
          "type": "bytes32"
        },
        {
          "internalType": "string",
          "name": "revealedResult",
          "type": "string"
        },
        {
          "internalType": "bool",
          "name": "revealRequested",
          "type": "bool"
        },
        {
          "internalType": "bytes32",
          "name": "expectedTallyHandle",
          "type": "bytes32"
        }
      ],
      "stateMutability": "view",
      "type": "function"
    },
    {
      "inputs": [
        {
          "internalType": "uint256",
          "name": "id",
          "type": "uint256"
        }
      ],
      "name": "getElection",
      "outputs": [
        {
          "internalType": "string",
          "name": "title",
          "type": "string"
        },
        {
          "internalType": "uint256",
          "name": "choices",
          "type": "uint256"
        },
        {
          "internalType": "enum VaultVote.ElectionState",
          "name": "state",
          "type": "uint8"
        },
        {
          "internalType": "string",
          "name": "revealedResult",
          "type": "string"
        }
      ],
      "stateMutability": "view",
      "type": "function"
    },
    {
      "inputs": [
        {
          "internalType": "uint256",
          "name": "id",
          "type": "uint256"
        }
      ],
      "name": "getEncryptedTally",
      "outputs": [
        {
          "internalType": "euint32",
          "name": "",
          "type": "bytes32"
        }
      ],
      "stateMutability": "view",
      "type": "function"
    },
    {
      "inputs": [
        {
          "internalType": "uint256",
          "name": "id",
          "type": "uint256"
        },
        {
          "internalType": "address",
          "name": "voter",
          "type": "address"
        }
      ],
      "name": "hasVoted",
      "outputs": [
        {
          "internalType": "bool",
          "name": "",
          "type": "bool"
        }
      ],
      "stateMutability": "view",
      "type": "function"
    },
    {
      "inputs": [
        {
          "internalType": "uint256",
          "name": "id",
          "type": "uint256"
        }
      ],
      "name": "openElection",
      "outputs": [],
      "stateMutability": "nonpayable",
      "type": "function"
    },
    {
      "inputs": [],
      "name": "owner",
      "outputs": [
        {
          "internalType": "address",
          "name": "",
          "type": "address"
        }
      ],
      "stateMutability": "view",
      "type": "function"
    },
    {
      "inputs": [
        {
          "internalType": "uint256",
          "name": "id",
          "type": "uint256"
        }
      ],
      "name": "requestTallyReveal",
      "outputs": [],
      "stateMutability": "nonpayable",
      "type": "function"
    },
    {
      "inputs": [
        {
          "internalType": "uint256",
          "name": "id",
          "type": "uint256"
        },
        {
          "internalType": "bytes",
          "name": "cleartexts",
          "type": "bytes"
        },
        {
          "internalType": "bytes",
          "name": "decryptionProof",
          "type": "bytes"
        }
      ],
      "name": "resolveTallyCallback",
      "outputs": [],
      "stateMutability": "nonpayable",
      "type": "function"
    }
  ],
  "bytecode": "0x608060405234801561000f575f80fd5b506100c461001b6100da565b80517f9e7b61f58c47dc699ac88507c4f5bb9f121c03808c5676a8078fe583e464970080546001600160a01b03199081166001600160a01b039384161790915560208301517f9e7b61f58c47dc699ac88507c4f5bb9f121c03808c5676a8078fe583e46497018054831691841691909117905560408301517f9e7b61f58c47dc699ac88507c4f5bb9f121c03808c5676a8078fe583e46497028054909216921691909117905550565b5f80546001600160a01b03191633179055610249565b604080516060810182525f808252602082018190529181019190915246600103610133575060408051606080820183525f8083526020808401829052928401819052835191820184528082529181018290529182015290565b4662aa36a7036101b2575060408051606080820183525f8083526020808401829052928401528251908101835273f0ffdc93b7e186bc2f8cb3daa75d86d1930a433d81527392c920834ec8941d2c77d188936e1f7a6f49c1279181019190915273be0e383937d564d7ff0bc3b46c51f0bf8d5c311a9181019190915290565b46617a6903610230575060408051606080820183525f808352602080840182905292840152825190810183527350157cffd6bbfa2dece204a89ec419c23ef5755d815273e3a9105a3a932253a70f126eb1e3b589c643dd249181019190915273901f8942346f7ab3a01f6d7613119bca447bb0309181019190915290565b6040516373cac13b60e01b815260040160405180910390fd5b611a8d80620002575f395ff3fe608060405234801561000f575f80fd5b50600436106100cb575f3560e01c80638589c7a511610088578063997d283011610063578063997d2830146101f65780639a1d5956146101ff5780639d71077714610212578063f0c42e0f14610235575f80fd5b80638589c7a5146101b15780638927b030146101c45780638da5cb5b146101cc575f80fd5b806309e33d07146100cf5780631539889c146100e4578063438596321461010a5780634ba39f42146101565780635e6fef01146101695780637445917e1461018f575b5f80fd5b6100e26100dd366004611258565b610248565b005b6100f76100f23660046112b4565b61031a565b6040519081526020015b60405180910390f35b610146610118366004611331565b5f8281526001602090815260408083206001600160a01b038516845260070190915290205460ff1692915050565b6040519015158152602001610101565b6100e2610164366004611258565b610469565b61017c610177366004611258565b6105b0565b60405161010197969594939291906113d5565b6100f761019d366004611258565b5f9081526001602052604090206003015490565b6100e26101bf366004611429565b610702565b6100f76108bd565b5f546101de906001600160a01b031681565b6040516001600160a01b039091168152602001610101565b6100f760025481565b6100e261020d366004611258565b6108cb565b610225610220366004611258565b610995565b6040516101019493929190611478565b6100e2610243366004611557565b610ae7565b5f546001600160a01b0316331461027a5760405162461bcd60e51b8152600401610271906115bf565b60405180910390fd5b5f81815260016020819052604090912090600282015460ff1660038111156102a4576102a46113ad565b146102dc5760405162461bcd60e51b81526020600482015260086024820152673737ba1037b832b760c11b6044820152606401610271565b6002818101805460ff1916909117905560405182907f393c4b8e62f1195313cf17dcf00793c668ddfc35881cd8015559c074f6d61e83905f90a25050565b5f80546001600160a01b031633146103445760405162461bcd60e51b8152600401610271906115bf565b5f851161037f5760405162461bcd60e51b8152602060048201526009602482015268063686f696365733e360bc1b6044820152606401610271565b600280545f918261038f836115e3565b909155505f818152600160205260409020909150806103af898b8361168b565b506001810187905560028101805460ff199081169091556005820180549091169055604080516020601f87018190048102820181019092528581526104109188919088908890819084018382808284375f92019190915250610d2992505050565b6003820181905561042090610d3d565b50817f43131521170c5b80ffe9526cfec987f5a24eb1f6c4bda47c41a5e4b8388afe5c8a8a8a60405161045593929190611745565b60405180910390a250979650505050505050565b5f546001600160a01b031633146104925760405162461bcd60e51b8152600401610271906115bf565b5f81815260016020526040902060028082015460ff1660038111156104b9576104b96113ad565b146104f75760405162461bcd60e51b815260206004820152600e60248201526d1b5d5cdd0818994818db1bdcd95960921b6044820152606401610271565b600581015460ff161561054c5760405162461bcd60e51b815260206004820152601860248201527f72657665616c20616c72656164792072657175657374656400000000000000006044820152606401610271565b6105598160030154610d4c565b600382018190556006820181905560058201805460ff1916600117905560405181815283907f9e177b4f8d9cb263621695451b65206985153c22fcaf0c94f141cbfb046870759060200160405180910390a2505050565b60016020525f90815260409020805481906105ca90611607565b80601f01602080910402602001604051908101604052809291908181526020018280546105f690611607565b80156106415780601f1061061857610100808354040283529160200191610641565b820191905f5260205f20905b81548152906001019060200180831161062457829003601f168201915b5050506001840154600285015460038601546004870180549697939660ff90931695509093509061067190611607565b80601f016020809104026020016040519081016040528092919081815260200182805461069d90611607565b80156106e85780601f106106bf576101008083540402835291602001916106e8565b820191905f5260205f20905b8154815290600101906020018083116106cb57829003601f168201915b505050506005830154600690930154919260ff1691905087565b5f84815260016020819052604090912090600282015460ff16600381111561072c5761072c6113ad565b1461076d5760405162461bcd60e51b815260206004820152601160248201527032b632b1ba34b7b7103737ba1037b832b760791b6044820152606401610271565b335f90815260078201602052604090205460ff16156107be5760405162461bcd60e51b815260206004820152600d60248201526c185b1c9958591e481d9bdd1959609a1b6044820152606401610271565b5f6107fe8585858080601f0160208091040260200160405190810160405280939291908181526020018383808284375f92019190915250610d2992505050565b905061080e826003015482610d56565b6003830181905561081e90610d3d565b5060038201545f5461083991906001600160a01b0316610d84565b50335f818152600784016020908152604091829020805460ff19166001179055905191825287917ff1003b73c437642c0460aee9cd9628b0b8c447b66e6c7c905531b9c644214a11910160405180910390a260405186907f73b9c3ed36e326183483543b285afeb55118781a574c2ba2f422684bb7589a7b905f90a2505050505050565b5f6108c6610d96565b905090565b5f546001600160a01b031633146108f45760405162461bcd60e51b8152600401610271906115bf565b5f81815260016020526040812090600282015460ff16600381111561091b5761091b6113ad565b146109585760405162461bcd60e51b815260206004820152600d60248201526c696e76616c696420737461746560981b6044820152606401610271565b60028101805460ff1916600117905560405182907f0589f8b93514c651c0c92b06bdb8118fe508daadf2ffdac1f516191be20fcb85905f90a25050565b5f8181526001602081905260408220908101546002820154825460609493849386939192839260ff1690600484019084906109cf90611607565b80601f01602080910402602001604051908101604052809291908181526020018280546109fb90611607565b8015610a465780601f10610a1d57610100808354040283529160200191610a46565b820191905f5260205f20905b815481529060010190602001808311610a2957829003601f168201915b50505050509350808054610a5990611607565b80601f0160208091040260200160405190810160405280929190818152602001828054610a8590611607565b8015610ad05780601f10610aa757610100808354040283529160200191610ad0565b820191905f5260205f20905b815481529060010190602001808311610ab357829003601f168201915b505050505090509450945094509450509193509193565b6002548310610b2b5760405162461bcd60e51b815260206004820152601060248201526f34b73b30b634b21032b632b1ba34b7b760811b6044820152606401610271565b5f838152600160205260409020600581015460ff16610b835760405162461bcd60e51b81526020600482015260146024820152731c995d99585b081b9bdd081c995c5d595cdd195960621b6044820152606401610271565b60028082015460ff166003811115610b9d57610b9d6113ad565b14610bdb5760405162461bcd60e51b815260206004820152600e60248201526d1b5d5cdd0818994818db1bdcd95960921b6044820152606401610271565b6003600282015460ff166003811115610bf657610bf66113ad565b03610c365760405162461bcd60e51b815260206004820152601060248201526f185b1c9958591e481c995d99585b195960821b6044820152606401610271565b6040805160018082528183019092525f91602080830190803683370190505090508160060154815f81518110610c6e57610c6e61177c565b602002602001018181525050610c85818585610dca565b5f84806020019051810190610c9a9190611790565b60028401805460ff1916600317905560405160e082901b6001600160e01b0319166020820152909150602401604051602081830303815290604052836004019081610ce591906117b3565b50857f52a64b40f55c9fa7f2d0f26b9141e0e5d6be69eb5e4926f51d94619ca569079f84600401604051610d199190611873565b60405180910390a2505050505050565b5f610d3683836004610e35565b9392505050565b5f610d488230610f42565b5090565b5f610d4882610fb6565b5f82610d6857610d655f611034565b92505b81610d7957610d765f611034565b91505b610d3683835f61104c565b5f610d8f8383610f42565b5090919050565b5f46600103610da55750600190565b4662aa36a703610db6575061271190565b46617a6903610dc557505f1990565b505f90565b5f610dd6848484611101565b905080610df65760405163cf6c44e960e01b815260040160405180910390fd5b7fc6366bab028b8d033cb362cfd1f2f3457ef4e92fc738b6788b90d5a7846367a08484604051610e27929190611937565b60405180910390a150505050565b7f9e7b61f58c47dc699ac88507c4f5bb9f121c03808c5676a8078fe583e46497015460405163045fc19560e11b81525f915f80516020611a38833981519152916001600160a01b03909116906308bf832a90610e9b90889033908990899060040161196b565b6020604051808303815f875af1158015610eb7573d5f803e3d5ffd5b505050506040513d601f19601f82011682018060405250810190610edb91906119a3565b8154604051630f8e573b60e21b8152600481018390523360248201529193506001600160a01b031690633e395cec906044015f604051808303815f87803b158015610f24575f80fd5b505af1158015610f36573d5f803e3d5ffd5b50505050509392505050565b5f80516020611a388339815191528054604051635ca4b5b160e11b8152600481018590526001600160a01b0384811660248301529091169063b9496b62906044015b5f604051808303815f87803b158015610f9b575f80fd5b505af1158015610fad573d5f803e3d5ffd5b50505050505050565b6040805160018082528183019092525f80516020611a38833981519152915f91906020808301908036833701905050905082815f81518110610ffa57610ffa61177c565b60209081029190910101528154604051637d6e912360e11b81526001600160a01b039091169063fadd224690610f849084906004016119ba565b5f6110468263ffffffff1660046111ae565b92915050565b5f80821561105f5750600160f81b611062565b505f5b5f5f80516020611a38833981519152600181015460405163022f65e760e31b815260048101899052602481018890526001600160f81b0319851660448201529192506001600160a01b03169063117b2f38906064016020604051808303815f875af11580156110d3573d5f803e3d5ffd5b505050506040513d601f19601f820116820180604052508101906110f791906119a3565b9695505050505050565b7f9e7b61f58c47dc699ac88507c4f5bb9f121c03808c5676a8078fe583e4649702546040516378542ead60e01b81525f915f80516020611a38833981519152916001600160a01b03909116906378542ead90611165908890889088906004016119cc565b6020604051808303815f875af1158015611181573d5f803e3d5ffd5b505050506040513d601f19601f820116820180604052508101906111a59190611a04565b95945050505050565b7f9e7b61f58c47dc699ac88507c4f5bb9f121c03808c5676a8078fe583e464970154604051639cd07acb60e01b81525f915f80516020611a38833981519152916001600160a01b0390911690639cd07acb906112109087908790600401611a23565b6020604051808303815f875af115801561122c573d5f803e3d5ffd5b505050506040513d601f19601f8201168201806040525081019061125091906119a3565b949350505050565b5f60208284031215611268575f80fd5b5035919050565b5f8083601f84011261127f575f80fd5b50813567ffffffffffffffff811115611296575f80fd5b6020830191508360208285010111156112ad575f80fd5b9250929050565b5f805f805f80608087890312156112c9575f80fd5b863567ffffffffffffffff808211156112e0575f80fd5b6112ec8a838b0161126f565b909850965060208901359550604089013594506060890135915080821115611312575f80fd5b5061131f89828a0161126f565b979a9699509497509295939492505050565b5f8060408385031215611342575f80fd5b8235915060208301356001600160a01b038116811461135f575f80fd5b809150509250929050565b5f81518084525f5b8181101561138e57602081850181015186830182015201611372565b505f602082860101526020601f19601f83011685010191505092915050565b634e487b7160e01b5f52602160045260245ffd5b600481106113d1576113d16113ad565b9052565b60e081525f6113e760e083018a61136a565b8860208401526113fa60408401896113c1565b8660608401528281036080840152611412818761136a565b94151560a0840152505060c0015295945050505050565b5f805f806060858703121561143c575f80fd5b8435935060208501359250604085013567ffffffffffffffff811115611460575f80fd5b61146c8782880161126f565b95989497509550505050565b608081525f61148a608083018761136a565b85602084015261149d60408401866113c1565b82810360608401526114af818561136a565b979650505050505050565b634e487b7160e01b5f52604160045260245ffd5b5f82601f8301126114dd575f80fd5b813567ffffffffffffffff808211156114f8576114f86114ba565b604051601f8301601f19908116603f01168101908282118183101715611520576115206114ba565b81604052838152866020858801011115611538575f80fd5b836020870160208301375f602085830101528094505050505092915050565b5f805f60608486031215611569575f80fd5b83359250602084013567ffffffffffffffff80821115611587575f80fd5b611593878388016114ce565b935060408601359150808211156115a8575f80fd5b506115b5868287016114ce565b9150509250925092565b6020808252600a908201526937b7363c9037bbb732b960b11b604082015260600190565b5f6001820161160057634e487b7160e01b5f52601160045260245ffd5b5060010190565b600181811c9082168061161b57607f821691505b60208210810361163957634e487b7160e01b5f52602260045260245ffd5b50919050565b601f82111561168657805f5260205f20601f840160051c810160208510156116645750805b601f840160051c820191505b81811015611683575f8155600101611670565b50505b505050565b67ffffffffffffffff8311156116a3576116a36114ba565b6116b7836116b18354611607565b8361163f565b5f601f8411600181146116e8575f85156116d15750838201355b5f19600387901b1c1916600186901b178355611683565b5f83815260208120601f198716915b8281101561171757868501358255602094850194600190920191016116f7565b5086821015611733575f1960f88860031b161c19848701351681555b505060018560011b0183555050505050565b60408152826040820152828460608301375f606084830101525f6060601f19601f8601168301019050826020830152949350505050565b634e487b7160e01b5f52603260045260245ffd5b5f602082840312156117a0575f80fd5b815163ffffffff81168114610d36575f80fd5b815167ffffffffffffffff8111156117cd576117cd6114ba565b6117e1816117db8454611607565b8461163f565b602080601f831160018114611814575f84156117fd5750858301515b5f19600386901b1c1916600185901b17855561186b565b5f85815260208120601f198616915b8281101561184257888601518255948401946001909101908401611823565b508582101561185f57878501515f19600388901b60f8161c191681555b505060018460011b0185555b505050505050565b5f60208083525f845461188581611607565b806020870152604060018084165f81146118a657600181146118c2576118ef565b60ff19851660408a0152604084151560051b8a010195506118ef565b895f5260205f205f5b858110156118e65781548b82018601529083019088016118cb565b8a016040019650505b509398975050505050505050565b5f815180845260208085019450602084015f5b8381101561192c57815187529582019590820190600101611910565b509495945050505050565b604081525f61194960408301856118fd565b82810360208401526111a5818561136a565b605481106113d1576113d16113ad565b8481526001600160a01b03841660208201526080604082018190525f906119949083018561136a565b90506111a5606083018461195b565b5f602082840312156119b3575f80fd5b5051919050565b602081525f610d3660208301846118fd565b606081525f6119de60608301866118fd565b82810360208401526119f0818661136a565b905082810360408401526110f7818561136a565b5f60208284031215611a14575f80fd5b81518015158114610d36575f80fd5b82815260408101610d36602083018461195b56fe9e7b61f58c47dc699ac88507c4f5bb9f121c03808c5676a8078fe583e4649700a26469706673582212208040f53dc4d4205192f67f66c20261fb71d88f43536958f1cdc1b1fca907bfba64736f6c63430008180033",
  "linkReferences": {},
  "deployedLinkReferences": {}
}